{
  "_format": "hh-sol-artifact-1",
  "contractName": "VoteCasting",
  "sourceName": "contracts/VoteCasting.sol",
  "abi": [
    {
      "inputs": [
        {
          "internalType": "address",
          "name": "_voterRegistrationAddress",
          "type": "address"
        }
      ],
      "stateMutability": "nonpayable",
      "type": "constructor"
    },
    {
      "anonymous": false,
      "inputs": [
        {
          "indexed": false,
          "internalType": "address",
          "name": "voterAddress",
          "type": "address"
        },
        {
          "indexed": false,
          "internalType": "bytes32",
          "name": "candidateID",
          "type": "bytes32"
        }
      ],
      "name": "VoteCast",
      "type": "event"
    },
    {
      "inputs": [
        {
          "internalType": "bytes32",
          "name": "",
          "type": "bytes32"
        }
      ],
      "name": "candidateVotes",
      "outputs": [
        {
          "internalType": "uint256",
          "name": "",
          "type": "uint256"
        }
      ],
      "stateMutability": "view",
      "type": "function"
    },
    {
      "inputs": [
        {
          "internalType": "bytes32",
          "name": "candidateID",
          "type": "bytes32"
        }
      ],
      "name": "castVote",
      "outputs": [],
      "stateMutability": "nonpayable",
      "type": "function"
    }
  ],
  "bytecode": "0x608060405234801561001057600080fd5b50604051610705380380610705833981810160405281019061003291906100dc565b80600260006101000a81548173ffffffffffffffffffffffffffffffffffffffff021916908373ffffffffffffffffffffffffffffffffffffffff16021790555050610109565b600080fd5b600073ffffffffffffffffffffffffffffffffffffffff82169050919050565b60006100a98261007e565b9050919050565b6100b98161009e565b81146100c457600080fd5b50565b6000815190506100d6816100b0565b92915050565b6000602082840312156100f2576100f1610079565b5b6000610100848285016100c7565b91505092915050565b6105ed806101186000396000f3fe608060405234801561001057600080fd5b50600436106100365760003560e01c80632f1fdc2a1461003b5780633efafb6e1461006b575b600080fd5b610055600480360381019061005091906102fd565b610087565b6040516100629190610343565b60405180910390f35b610085600480360381019061008091906102fd565b61009f565b005b60006020528060005260406000206000915090505481565b600260009054906101000a900473ffffffffffffffffffffffffffffffffffffffff1673ffffffffffffffffffffffffffffffffffffffff166309bd0950336040518263ffffffff1660e01b81526004016100fa919061039f565b602060405180830381865afa158015610117573d6000803e3d6000fd5b505050506040513d601f19601f8201168201806040525081019061013b91906103f2565b61017a576040517f08c379a00000000000000000000000000000000000000000000000000000000081526004016101719061047c565b60405180910390fd5b600160003373ffffffffffffffffffffffffffffffffffffffff1673ffffffffffffffffffffffffffffffffffffffff16815260200190815260200160002060009054906101000a900460ff1615610207576040517f08c379a00000000000000000000000000000000000000000000000000000000081526004016101fe906104e8565b60405180910390fd5b600080828152602001908152602001600020600081548092919061022a90610537565b919050555060018060003373ffffffffffffffffffffffffffffffffffffffff1673ffffffffffffffffffffffffffffffffffffffff16815260200190815260200160002060006101000a81548160ff0219169083151502179055507fa55a6802e1be8e8b837435e17cec23b2e9cd61773bb7b073eb7e1c176cdf3d3233826040516102b792919061058e565b60405180910390a150565b600080fd5b6000819050919050565b6102da816102c7565b81146102e557600080fd5b50565b6000813590506102f7816102d1565b92915050565b600060208284031215610313576103126102c2565b5b6000610321848285016102e8565b91505092915050565b6000819050919050565b61033d8161032a565b82525050565b60006020820190506103586000830184610334565b92915050565b600073ffffffffffffffffffffffffffffffffffffffff82169050919050565b60006103898261035e565b9050919050565b6103998161037e565b82525050565b60006020820190506103b46000830184610390565b92915050565b60008115159050919050565b6103cf816103ba565b81146103da57600080fd5b50565b6000815190506103ec816103c6565b92915050565b600060208284031215610408576104076102c2565b5b6000610416848285016103dd565b91505092915050565b600082825260208201905092915050565b7f566f746572206973206e6f742072656769737465726564000000000000000000600082015250565b600061046660178361041f565b915061047182610430565b602082019050919050565b6000602082019050818103600083015261049581610459565b9050919050565b7f566f7465722068617320616c726561647920766f746564000000000000000000600082015250565b60006104d260178361041f565b91506104dd8261049c565b602082019050919050565b60006020820190508181036000830152610501816104c5565b9050919050565b7f4e487b7100000000000000000000000000000000000000000000000000000000600052601160045260246000fd5b60006105428261032a565b91507fffffffffffffffffffffffffffffffffffffffffffffffffffffffffffffffff820361057457610573610508565b5b600182019050919050565b610588816102c7565b82525050565b60006040820190506105a36000830185610390565b6105b0602083018461057f565b939250505056fea2646970667358221220669a383061389d93808997ed21b160eb25fe94fd78d896796799e89ce9139a5564736f6c634300081a0033",
  "linkReferences": {},
  "deployedLinkReferences": {}
}