{
  "_format": "hh-sol-artifact-1",
  "contractName": "ResultTallying",
  "sourceName": "contracts/ResultTallying.sol",
  "abi": [
    {
      "inputs": [
        {
          "internalType": "address",
          "name": "_voteCastingAddress",
          "type": "address"
        }
      ],
      "stateMutability": "nonpayable",
      "type": "constructor"
    },
    {
      "inputs": [
        {
          "internalType": "bytes32[]",
          "name": "candidateList",
          "type": "bytes32[]"
        }
      ],
      "name": "tallyVotes",
      "outputs": [
        {
          "internalType": "uint256[]",
          "name": "",
          "type": "uint256[]"
        }
      ],
      "stateMutability": "view",
      "type": "function"
    }
  ],
  "bytecode": "0x608060405234801561001057600080fd5b5060405161067b38038061067b833981810160405281019061003291906100db565b806000806101000a81548173ffffffffffffffffffffffffffffffffffffffff021916908373ffffffffffffffffffffffffffffffffffffffff16021790555050610108565b600080fd5b600073ffffffffffffffffffffffffffffffffffffffff82169050919050565b60006100a88261007d565b9050919050565b6100b88161009d565b81146100c357600080fd5b50565b6000815190506100d5816100af565b92915050565b6000602082840312156100f1576100f0610078565b5b60006100ff848285016100c6565b91505092915050565b610564806101176000396000f3fe608060405234801561001057600080fd5b506004361061002b5760003560e01c8063ed673fa914610030575b600080fd5b61004a60048036038101906100459190610349565b610060565b604051610057919061045a565b60405180910390f35b60606000825167ffffffffffffffff81111561007f5761007e6101d0565b5b6040519080825280602002602001820160405280156100ad5781602001602082028036833780820191505090505b50905060005b835181101561019c5760008054906101000a900473ffffffffffffffffffffffffffffffffffffffff1673ffffffffffffffffffffffffffffffffffffffff16632f1fdc2a85838151811061010b5761010a61047c565b5b60200260200101516040518263ffffffff1660e01b815260040161012f91906104ba565b602060405180830381865afa15801561014c573d6000803e3d6000fd5b505050506040513d601f19601f820116820180604052508101906101709190610501565b8282815181106101835761018261047c565b5b60200260200101818152505080806001019150506100b3565b5080915050919050565b6000604051905090565b600080fd5b600080fd5b600080fd5b6000601f19601f8301169050919050565b7f4e487b7100000000000000000000000000000000000000000000000000000000600052604160045260246000fd5b610208826101bf565b810181811067ffffffffffffffff82111715610227576102266101d0565b5b80604052505050565b600061023a6101a6565b905061024682826101ff565b919050565b600067ffffffffffffffff821115610266576102656101d0565b5b602082029050602081019050919050565b600080fd5b6000819050919050565b61028f8161027c565b811461029a57600080fd5b50565b6000813590506102ac81610286565b92915050565b60006102c56102c08461024b565b610230565b905080838252602082019050602084028301858111156102e8576102e7610277565b5b835b8181101561031157806102fd888261029d565b8452602084019350506020810190506102ea565b5050509392505050565b600082601f8301126103305761032f6101ba565b5b81356103408482602086016102b2565b91505092915050565b60006020828403121561035f5761035e6101b0565b5b600082013567ffffffffffffffff81111561037d5761037c6101b5565b5b6103898482850161031b565b91505092915050565b600081519050919050565b600082825260208201905092915050565b6000819050602082019050919050565b6000819050919050565b6103d1816103be565b82525050565b60006103e383836103c8565b60208301905092915050565b6000602082019050919050565b600061040782610392565b610411818561039d565b935061041c836103ae565b8060005b8381101561044d57815161043488826103d7565b975061043f836103ef565b925050600181019050610420565b5085935050505092915050565b6000602082019050818103600083015261047481846103fc565b905092915050565b7f4e487b7100000000000000000000000000000000000000000000000000000000600052603260045260246000fd5b6104b48161027c565b82525050565b60006020820190506104cf60008301846104ab565b92915050565b6104de816103be565b81146104e957600080fd5b50565b6000815190506104fb816104d5565b92915050565b600060208284031215610517576105166101b0565b5b6000610525848285016104ec565b9150509291505056fea2646970667358221220d37b29038627b58b8fb8064bc75d6cfc1d0a142d0bffc5242124029cf43741ad64736f6c634300081a0033",
  "linkReferences": {},
  "deployedLinkReferences": {}
}