{
  "_format": "hh-sol-artifact-1",
  "contractName": "VoterRegistration",
  "sourceName": "contracts/VoterRegistration.sol",
  "abi": [
    {
      "anonymous": false,
      "inputs": [
        {
          "indexed": false,
          "internalType": "address",
          "name": "voterAddress",
          "type": "address"
        },
        {
          "indexed": false,
          "internalType": "bytes32",
          "name": "voterID",
          "type": "bytes32"
        }
      ],
      "name": "VoterRegistered",
      "type": "event"
    },
    {
      "inputs": [
        {
          "internalType": "address",
          "name": "voterAddress",
          "type": "address"
        },
        {
          "internalType": "bytes32",
          "name": "voterID",
          "type": "bytes32"
        }
      ],
      "name": "registerVoter",
      "outputs": [],
      "stateMutability": "nonpayable",
      "type": "function"
    },
    {
      "inputs": [
        {
          "internalType": "address",
          "name": "",
          "type": "address"
        }
      ],
      "name": "registeredVoters",
      "outputs": [
        {
          "internalType": "bool",
          "name": "",
          "type": "bool"
        }
      ],
      "stateMutability": "view",
      "type": "function"
    },
    {
      "inputs": [
        {
          "internalType": "address",
          "name": "voterAddress",
          "type": "address"
        }
      ],
      "name": "verifyVoter",
      "outputs": [
        {
          "internalType": "bool",
          "name": "",
          "type": "bool"
        }
      ],
      "stateMutability": "view",
      "type": "function"
    }
  ],
  "bytecode": "0x6080604052348015600f57600080fd5b506104d18061001f6000396000f3fe608060405234801561001057600080fd5b50600436106100415760003560e01c806309bd095014610046578063a9ff6df114610076578063fc6e1d76146100a6575b600080fd5b610060600480360381019061005b91906102fe565b6100c2565b60405161006d9190610346565b60405180910390f35b610090600480360381019061008b91906102fe565b610117565b60405161009d9190610346565b60405180910390f35b6100c060048036038101906100bb9190610397565b610137565b005b60008060008373ffffffffffffffffffffffffffffffffffffffff1673ffffffffffffffffffffffffffffffffffffffff16815260200190815260200160002060009054906101000a900460ff169050919050565b60006020528060005260406000206000915054906101000a900460ff1681565b6000808373ffffffffffffffffffffffffffffffffffffffff1673ffffffffffffffffffffffffffffffffffffffff16815260200190815260200160002060009054906101000a900460ff16156101c3576040517f08c379a00000000000000000000000000000000000000000000000000000000081526004016101ba90610434565b60405180910390fd5b60016000808473ffffffffffffffffffffffffffffffffffffffff1673ffffffffffffffffffffffffffffffffffffffff16815260200190815260200160002060006101000a81548160ff02191690831515021790555080600160008473ffffffffffffffffffffffffffffffffffffffff1673ffffffffffffffffffffffffffffffffffffffff168152602001908152602001600020819055507fcb132692088ed2362f97fa54137ebf47a8e5829794ddfbd9f1959728d27e3f4e828260405161028f929190610472565b60405180910390a15050565b600080fd5b600073ffffffffffffffffffffffffffffffffffffffff82169050919050565b60006102cb826102a0565b9050919050565b6102db816102c0565b81146102e657600080fd5b50565b6000813590506102f8816102d2565b92915050565b6000602082840312156103145761031361029b565b5b6000610322848285016102e9565b91505092915050565b60008115159050919050565b6103408161032b565b82525050565b600060208201905061035b6000830184610337565b92915050565b6000819050919050565b61037481610361565b811461037f57600080fd5b50565b6000813590506103918161036b565b92915050565b600080604083850312156103ae576103ad61029b565b5b60006103bc858286016102e9565b92505060206103cd85828601610382565b9150509250929050565b600082825260208201905092915050565b7f566f74657220697320616c726561647920726567697374657265640000000000600082015250565b600061041e601b836103d7565b9150610429826103e8565b602082019050919050565b6000602082019050818103600083015261044d81610411565b9050919050565b61045d816102c0565b82525050565b61046c81610361565b82525050565b60006040820190506104876000830185610454565b6104946020830184610463565b939250505056fea26469706673582212205dcd33f9b7820b0514c501b9680b4c3bcdc148e0213b7abe774986f954631d4764736f6c634300081a0033",
  "linkReferences": {},
  "deployedLinkReferences": {}
}